:100000000C942A000C9434000C9434000C943400AA
:100010000C9434000C9434000C9434000C94340090
:100020000C9434000C9434000C9434000C94340080
:100030000C9434000C9434000C9434000C94340070
:100040000C9434000C9434000C9434000C94340060
:100050000C94340011241FBECFE5D8E0DEBFCDBF25
:100060000E9436000C947D000C9400008FEF81BB41
:1000700014BA8ABB80E091E092BB989987E0999985
:1000800088E09A9989E09B998FE2E9EFF0E0319757
:10009000F1F700C0000092E092BB989984E0999932
:1000A00085E09A9986E09B998AE2E9EFF0E0319742
:1000B000F1F700C0000094E092BB989981E0999913
:1000C00082E09A9983E09B998DE2E9EFF0E0319725
:1000D000F1F700C0000098E092BB98998FE69999DB
:1000E00080E09A998DE39B998BE2E9EFF0E03197FC
:0E00F000F1F700C000008BBBBECFF894FFCF2D
:00000001FF
