:100000000C942A000C9434000C9434000C943400AA
:100010000C9434000C9434000C9434000C94340090
:100020000C9434000C9434000C9434000C94340080
:100030000C9434000C9434000C9434000C94340070
:100040000C9434000C9434000C9434000C94340060
:100050000C94340011241FBECFE5D8E0DEBFCDBF25
:100060000E9475000C9418020C9400008F929F92CD
:10007000AF92BF92CF92DF92EF92FF92BC0112BE7D
:1000800083B7816083BF072E000C880B990B0E94F9
:10009000FB002AE939E949E750E40E94AB014B0132
:1000A0005C01C12CD12C76010FC008B600FEFDCF3B
:1000B00081E088BF20E030E040E85FE3C701B6019F
:1000C0000E9488006B017C01A5019401C701B60163
:1000D0000E94F40088234CF3FF90EF90DF90CF90C4
:1000E000BF90AF909F908F9008958FEF81BBC0E03D
:1000F000D0E005C085E090E00E9436002196C83C23
:10010000D105C4F392B380E4892782BBF0CF505865
:10011000BB27AA270E949F000C9471010E946301D3
:1001200038F00E946A0120F039F49F3F19F426F458
:100130000C9460010EF4E095E7FB0C945A01E92F52
:100140000E94820158F3BA17620773078407950764
:1001500020F079F4A6F50C94A4010EF4E0950B2E92
:10016000BA2FA02D0B01B90190010C01CA01A00109
:100170001124FF27591B99F0593F50F4503E68F164
:100180001A16F040A22F232F342F4427585FF3CFA5
:10019000469537952795A795F0405395C9F77EF476
:1001A0001F16BA0B620B730B840BBAF09150A1F0BF
:1001B000FF0FBB1F661F771F881FC2F70EC0BA0F45
:1001C000621F731F841F48F4879577956795B795CD
:1001D000F7959E3F08F0B0CF9395880F08F09927C8
:1001E000EE0F9795879508950E94360108F481E0F7
:1001F0000895E89409C097FB3EF49095809570951A
:1002000061957F4F8F4F9F4F9923A9F0F92F96E962
:10021000BB279395F695879577956795B795F111D7
:10022000F8CFFAF4BB0F11F460FF1BC06F5F7F4F74
:100230008F4F9F4F16C0882311F096E911C0772386
:1002400021F09EE8872F762F05C0662371F096E88F
:10025000862F70E060E02AF09A95660F771F881F5E
:10026000DAF7880F9695879597F90895990F000802
:10027000550FAA0BE0E8FEEF16161706E807F90778
:10028000C0F012161306E407F50798F0621B730B13
:10029000840B950B39F40A2661F0232B242B252B94
:1002A00021F408950A2609F4A140A6958FEF811D37
:1002B000811D089597F99F6780E870E060E00895D8
:1002C0009FEF80EC089500240A941616170618066E
:1002D0000906089500240A9412161306140605064A
:1002E0000895092E0394000C11F4882352F0BB0FDB
:1002F00040F4BF2B11F460FF04C06F5F7F4F8F4F3E
:100300009F4F089557FD9058440F551F59F05F3F78
:1003100071F04795880F97FB991F61F09F3F79F027
:1003200087950895121613061406551FF2CF4695A9
:10033000F1DF08C0161617061806991FF1CF86952B
:100340007105610508940895E894BB27662777270F
:10035000CB0197F908950E94BE010C9471010E948F
:10036000630138F00E946A0120F0952311F00C948B
:100370005A010C94600111240C94A5010E94820181
:1003800070F3959FC1F3950F50E0551F629FF001E8
:10039000729FBB27F00DB11D639FAA27F00DB11D01
:1003A000AA1F649F6627B00DA11D661F829F22278A
:1003B000B00DA11D621F739FB00DA11D621F839F11
:1003C000A00D611D221F749F3327A00D611D231FE7
:1003D000849F600D211D822F762F6A2F11249F5735
:1003E00050409AF0F1F088234AF0EE0FFF1FBB1F38
:1003F000661F771F881F91505040A9F79E3F5105F7
:1004000080F00C945A010C94A5015F3FE4F3983EF0
:10041000D4F3869577956795B795F795E7959F5FA0
:10042000C1F7FE2B880F911D9695879597F9089532
:04043000F894FFCF6E
:00000001FF
