:100000000C942A000C9447000C9447000C94470071
:100010000C9447000C9447000C9447000C94470044
:100020000C9447000C9447000C9447000C94470034
:100030000C9447000C9447000C9447000C94470024
:100040000C9447000C9447000C9447000C94470014
:100050000C94470011241FBECFE5D8E0DEBFCDBF12
:1000600010E0A0E6B0E0E2EEF1E002C005900D92F3
:10007000AA36B107D9F720E0AAE6B0E001C01D9288
:10008000A037B207E1F70E94A1000C94EF000C9496
:10009000000005C022E02A95F1F700C0019718166C
:1000A0001906C4F30895FC012AE030E0B9010E946A
:1000B000C70090936D0080936C00CB01B9010E9442
:1000C000C70090936B0080936A00CF0164E670E0F4
:1000D0000E94C700CB01B9010E94C70090936F0036
:1000E00080936E000895CF93DF9391E095BBE091EC
:1000F0006C00F0916D00E05AFF4F908192BBC82FC9
:10010000D0E0CE010E94490082E085BBE0916A0008
:10011000F0916B00E05AFF4F808182BBCE010E94BC
:10012000490084E085BBE0916E00F0916F00E05AD9
:10013000FF4F808182BBCE010E944900DF91CF91A9
:1001400008958FEF81BB84BB82BB85BB88EC91E0B7
:100150000E94530088EE0E9473002FEF89E698E119
:10016000215080409040E1F700C0000085E193E01D
:100170000E94530088EE0E9473002FEF89E698E1F9
:10018000215080409040E1F700C00000DFCF97FB96
:10019000072E16F4009407D077FD09D00E94DB00EB
:1001A00007FC05D03EF4909581959F4F089570957A
:1001B00061957F4F0895AA1BBB1B51E107C0AA1F81
:1001C000BB1FA617B70710F0A61BB70B881F991FF8
:1001D0005A95A9F780959095BC01CD010895F894A2
:0201E000FFCF4F
:0A01E20000010203040506070809E6
:00000001FF
