S0130000554152545F53656E6465722E7372656315
S11300000C942A000C9434000C9434000C943400A6
S11300100C9434000C9434000C9434000C9434008C
S11300200C9434000C9434000C9434000C9434007C
S11300300C9434000C9434000C9434000C9434006C
S11300400C9434000C9434000C9434000C9434005C
S11300500C94340011241FBECFE5D8E0DEBFCDBF21
S11300600E9449000C945B000C9400002AB12861A2
S11300702AB920B5266820BD89B990BD08955D9B35
S1130080FECF8CB95E9BFECF08955F9BFECF8CB1F3
S1130090089587E690E00E9436008FEF8ABB0E94A5
S11300A04500C82F0E943F00C13419F48FEF8BBB69
S10D00B0F6CF1BBAF4CFF894FFCF8B
S9030000FC
