:100000000C942A000C943F000C943F000C943F0089
:100010000C943F000C943F000C943F000C943F0064
:100020000C943F000C943F000C943F000C943F0054
:100030000C943F000C943F000C943F000C943F0044
:100040000C943F000C943F000C943F000C943F0034
:100050000C943F0011241FBECFE5D8E0DEBFCDBF1A
:1000600010E0A0E6B0E0EAE7F1E002C005900D92F2
:10007000AE36B107D9F70E94A2000C94BB000C94D5
:10008000000085BB82B38D7F82BB82B38B7F82BB36
:1000900082B3886082BB000082B3877F82BB8DEE13
:1000A00092E00197F1F700C00000089585BB82B38C
:1000B000826082BB82B38B7F82BB82B3886082BB4B
:1000C000000082B3877F82BB89EF90E00197F1F750
:1000D00000C0000008958FEF84BB81B3886081BBAE
:1000E00081B3826081BB81B3846081BB87E893E187
:1000F0000197F1F700C0000088E30E9441008CE006
:100100000E94410086E00E94410081E00E9441007F
:1001100080E80E94410008950F931F93CF93DF93CF
:100120008C01C0E0D0E003C00E9456002196F80187
:10013000EC0FFD1F80818111F7CFDF91CF911F91CF
:100140000F9108950E946B0080E690E00E948C0061
:100150002FE78AE196E0215080409040E1F700C00F
:10016000000081E00E94410087E690E00E948C0040
:0A01700080E090E00895F894FFCFBE
:0E017A006861206C6C6F00414D2049540000FC
:00000001FF
