S00B00004144432E7372656351
S11300000C942A000C9434000C9434000C943400A6
S11300100C9434000C9434000C9434000C9434008C
S11300200C9434000C9434000C9434000C9434007C
S11300300C9434000C9434000C9434000C9434006C
S11300400C9434000C9434000C9434000C9434005C
S11300500C94340011241FBECFE5D8E0DEBFCDBF21
S11300600E9455000C946C000C94000087B18064CD
S113007087B986B1806886B986B1846086B90895E7
S113008097B1907E892B87B986B1806486B9349BF9
S1130090FECF83E08A95F1F7000024B185B190E0AA
S11300A0982F8827820F911D08958AB38F7E8ABB6B
S11300B08AB380688ABB0E94360084E090E00E9484
S11300C040008115924024F08BB380688BBBF5CF40
S10F00D08BB38F778BBBF1CFF894FFCF7C
S9030000FC
