S01200004354435F54696D6572312E73726563A7
S11300000C942A000C9434000C9434000C943400A6
S11300100C9434000C9434000C9434000C9434008C
S11300200C9434000C9434000C9434000C9434007C
S11300300C9434000C9434000C9434000C9434006C
S11300400C9434000C9434000C9434000C9434005C
S11300500C94340011241FBECFE5D8E0DEBFCDBF21
S11300600E9436000C944C000C94000087B3886006
S113007087BB85E48CBF89E383BF08B601FEFDCF4F
S113008082E088BF87EC8CBF89E283BF08B601FE9B
S10F0090FDCF82E088BFEDCFF894FFCFD5
S9030000FC
