S010000074696D6572302D312E7372656365
S11300000C942A000C943C000C943C000C943C008E
S11300100C943C000C943C000C943C000C943C006C
S11300200C943C000C943C000C943C000C943C005C
S11300300C943C000C943C000C943C000C943C004C
S11300400C943C000C943C000C943C000C943C003C
S11300500C943C0011241FBECFE5D8E0DEBFCDBF19
S113006020E0A0E6B0E001C01D92A036B207E1F79F
S11300700E9457000C9464000C94000012BE83B7D5
S1130080846083BF08952FE0289FA001299F500D0D
S1130090112420E030E007C008B600FEFDCF91E057
S11300A098BF2F5F3F4F24173507B4F308950E947C
S11300B03E008FEF81BB83E090E00E94430092B347
S10F00C080E4892782BBF7CFF894FFCFBF
S9030000FC
