S014000050574D5F44435F4D6F746F722E73726563C6
S11300000C942A000C9434000C9434000C943400A6
S11300100C9434000C9434000C9434000C9434008C
S11300200C9434000C9434000C9434000C9434007C
S11300300C9434000C9434000C9434000C9434006C
S11300400C9434000C9434000C9434000C9434005C
S11300500C94340011241FBECFE5D8E0DEBFCDBF21
S11300600E9436000C945B000C9400008FEF8ABB56
S11300708BB381608BBB8BB382608BBB89E683BF00
S113008087B3886087BB80E008C08CBFE3ECF9E0ED
S11300903197F1F700C000008F5F8F3FB1F708C0C0
S11300A08CBFE3ECF9E03197F1F700C00000815018
S10D00B08230B0F7E8CFF894FFCFD8
S9030000FC
