S00B00004943552E7372656338
S11300000C942A000C9434000C9434000C943400A6
S11300100C9434000C9434000C9434000C9434008C
S11300200C9434000C9434000C9434000C9434007C
S11300300C9434000C9434000C9434000C9434006C
S11300400C9434000C9434000C9434000C9434005C
S11300500C94340011241FBECFE5D8E0DEBFCDBF21
S11300600E9436000C9450000C9400008FEF8ABB61
S113007087BB82BB1FBC80E288BF81E48EBD08B60B
S113008005FEFDCF26B537B580E288BF08B605FE6C
S1130090FDCF86B597B5821B930B8BBB98BBFFCF67
S10700A0F894FFCFFE
S9030000FC
