:100000000C942A000C943C000C943C000C943C0092
:100010000C943C000C943C000C943C000C943C0070
:100020000C943C000C943C000C943C000C943C0060
:100030000C943C000C943C000C943C000C943C0050
:100040000C943C000C943C000C943C000C943C0040
:100050000C943C0011241FBECFE5D8E0DEBFCDBF1D
:1000600020E0A0E6B0E001C01D92A136B207E1F7A2
:100070000E9443000C945B000C94000012BE83B7F6
:10008000846083BF08950E943E0081B3806481BB79
:1000900008B600FEFDCF809160008F5F8093600006
:1000A0008F3031F492B380E4892782BB10926000D4
:0A00B00081E088BFEDCFF894FFCF88
:00000001FF
