:100000000C942A000C9434000C9434000C943400AA
:100010000C9434000C9434000C9434000C94340090
:100020000C9434000C9434000C9434000C94340080
:100030000C9434000C9434000C9434000C94340070
:100040000C9434000C9434000C9434000C94340060
:100050000C94340011241FBECFE5D8E0DEBFCDBF25
:100060000E9436000C9452000C94000084B384600B
:1000700084BB85B3846085BB2FEF83ED90E3215073
:1000800080409040E1F700C0000085B38B7F85BBC6
:100090002FEF83ED90E3215080409040E1F700C0C6
:0800A0000000E7CFF894FFCF48
:00000001FF
