:100000000C942A000C943C000C943C000C943C0092
:100010000C943C000C943C000C943C000C943C0070
:100020000C943C000C943C000C943C000C943C0060
:100030000C943C000C943C000C943C000C943C0050
:100040000C943C000C943C000C943C000C943C0040
:100050000C943C0011241FBECFE5D8E0DEBFCDBF1D
:1000600020E0A0E6B0E001C01D92A036B207E1F7A3
:100070000E9459000C9466000C9400008DEB82BF26
:1000800083B7846083BF0895AC0142955295507F39
:100090005427407F542720E030E007C008B600FE18
:1000A000FDCF91E098BF2F5F3F4F24173507B4F382
:1000B00008950E943E008FEF81BB83E090E00E9494
:1000C000440092B380E4892782BBF7CFF894FFCF36
:00000001FF
