:100000000C942A000C9493000C946A000C94340015
:100010000C9434000C9434000C9434000C94340090
:100020000C9434000C9434000C9434000C94340080
:100030000C9434000C9434000C9434000C94340070
:100040000C9434000C9434000C9434000C94340060
:100050000C94340011241FBECFE5D8E0DEBFCDBF25
:100060000E9452000C94A2000C94000081B3877F80
:1000700081BB85B7877F85BF85B7846085BF8BB718
:1000800080688BBF7894089581B38B7F81BB85B7DF
:10009000826085BF85B7816085BF8BB780648BBF69
:1000A000789408958AB380628ABB0E9436000E94C9
:1000B000440087B3806487BB98B380E4892788BBFA
:1000C0002FE986E891E0215080409040E1F700C0A0
:1000D0000000F2CF1F920F920FB60F9211242F93B0
:1000E0003F934F938F939F9320E030E00FC09BB3DB
:1000F00080E289278BBB4FE986E891E04150804040
:100100009040E1F700C000002F5F3F4F27303105DE
:1001100074F39F918F914F913F912F910F900FBE4C
:100120000F901F9018951F920F920FB60F921124E7
:100130008F938BB38F7D8BBB8F910F900FBE0F90E2
:080140001F901895F894FFCF01
:00000001FF
