S00D0000536572766F2E7372656308
S11300000C942A000C9434000C9434000C943400A6
S11300100C9434000C9434000C9434000C9434008C
S11300200C9434000C9434000C9434000C9434007C
S11300300C9434000C9434000C9434000C9434006C
S11300400C9434000C9434000C9434000C9434005C
S11300500C94340011241FBECFE5D8E0DEBFCDBF21
S11300600E9436000C946B000C94000081B38062F3
S113007081BB1DBC1CBC83EC99E097BD86BD82E8A6
S11300808FBD8BE18EBD81E490E09BBD8ABD2FEDD9
S113009083E994E0215080409040E1F700C00000E3
S11300A08FEA90E09BBD8ABD2FED83E994E0215057
S11300B080409040E1F700C000008CE291E09BBDDD
S11300C08ABD2FED83E994E0215080409040E1F710
S10D00D000C00000D8CFF894FFCF61
S9030000FC
