S00E00006932636C63642E73726563E5
S11300000C942A000C9447000C9447000C9447006D
S11300100C9447000C9447000C9447000C94470040
S11300200C9447000C9447000C9447000C94470030
S11300300C9447000C9447000C9447000C94470020
S11300400C9447000C9447000C9447000C94470010
S11300500C94470011241FBECFE5D8E0DEBFCDBF0E
S113006010E0A0E6B0E0E2EAFAE002C005900D92EA
S1130070A83AB107D9F720E0A8EAB0E001C01D9280
S1130080AE3BB207E1F70E94DE010C944F050C94DD
S1130090000083B1826083B984E886BF06B607FE98
S11300A0FDCF8FEC97E00197F1F700C0000083B11A
S11300B08D7F83B984E886BF06B607FEFDCF089519
S11300C0CF93C82F83B18E7F83B984E886BF06B6E9
S11300D007FEFDCF83B18F7083B984E886BF06B66F
S11300E007FEFDCF83B19C2F907F892B83B984E8D1
S11300F086BF06B607FEFDCF0E94490083B18F700C
S113010083B984E886BF06B607FEFDCF23B130E18C
S1130110C39FC0011124822B83B984E886BF06B62D
S113012007FEFDCF0E944900CF91089593B19E7FB1
S113013093B994E896BF06B607FEFDCF93B19F70BE
S113014093B994E896BF06B607FEFDCF93B1807FBE
S1130150892B83B984E886BF06B607FEFDCF0E94CB
S113016049000895CF93C82F83B1816083B984E88F
S113017086BF06B607FEFDCF83B18F7083B984E8CE
S113018086BF06B607FEFDCF83B19C2F907F892BD7
S113019083B984E886BF06B607FEFDCF0E944900F6
S11301A083B18F7083B984E886BF06B607FEFDCF9E
S11301B023B130E1C39FC0011124822B83B984E8A9
S11301C086BF06B607FEFDCF0E944900CF91089571
S11301D080E30E94960080E30E94960080E20E94E1
S11301E0960088E20E9460008CE00E94600081E03A
S11301F00E94600086E00E94600080E80E94600027
S11302000895CF93DF93EC0103C021960E94B200BE
S113021088818111FACFDF91CF910895009719F069
S1130220019719F003C0606801C0606C862F0E94BA
S113023060000895CF93DF9380E80E946000C0E0DF
S1130240D0E004C080E20E94B2002196C634D105F9
S1130250CCF3DF91CF91089582E680B984E086BF24
S113026011B8089584EA86BF06B607FEFDCF089547
S113027083B984E886BF06B607FEFDCF08950F93C1
S11302801F93CF93DF9386E70E9438010E943201C7
S113029060E070E080E090E00E940E0180E690E073
S11302A00E94010160E070E081E090E00E940E0194
S11302B086E690E00E94010168E070E081E090E051
S11302C00E940E018091BD008F938091BC008F939A
S11302D00FE610E01F930F93CCEAD0E0DF93CF93A7
S11302E00E946502CE010E94010182E70E9438014A
S11302F00E94320160E070E080E090E00E940E0114
S113030082E790E00E94010160E070E081E090E00B
S11303100E940E0186E690E00E94010168E070E010
S113032081E090E00E940E018091A9008F9380915A
S1130330A8008F931F930F93DF93CF930E946502BE
S1130340CE010E9401018AE70E9438010E94320115
S113035060E070E080E090E00E940E0188E790E0A9
S11303600E94010160E070E081E090E00E940E01D3
S113037086E690E00E94010168E070E081E090E090
S11303800E940E018091AB008F938091AA008F93FD
S11303901F930F93DF93CF930E946502CE010E94B7
S11303A001018DB79EB742960FB6F8949EBF0FBE5B
S11303B08DBFDF91CF911F910F9108950E942C0161
S11303C00E94320186E70E9438010E94E8000E94E0
S11303D01A0160E070E080E090E00E940E018EE778
S11303E090E00E9401012FEF89E698E121508040BE
S11303F09040E1F700C000000E941A0182E70E94C9
S113040038010E9432010E94E8000E941A0160E053
S113041070E080E090E00E940E018CE890E00E9481
S113042001012FEF89E698E1215080409040E1F7E7
S113043000C000000E941A018AE70E9438010E944D
S113044032010E94E8000E941A0160E070E080E03E
S113045090E00E940E018AE990E00E9401012FEFD2
S113046089E698E1215080409040E1F700C0000007
S11304700E941A018091BC009091BD000196909356
S1130480BD008093BC0080FD14C08091A8009091B1
S1130490A90001969093A9008093A80080FD09C04B
S11304A08091AA009091AB0001969093AB00809349
S11304B0AA000E943F012FEF89E698E12150804075
S11304C09040E1F700C00000D5CFAEE0B0E0EBE62D
S11304D0F2E00C9426050D891E8986E08C831A832C
S11304E009838FEF9FE79E838D83AE01475E5F4F45
S11304F06F89788DCE0101960E948702EF81F8857D
S1130500E00FF11F10822E96E4E00C944205ABE05C
S1130510B0E0EDE8F2E00C9418056C017B018A016F
S1130520FC0117821682838181FFCCC1CE01019622
S11305303C01F6019381F70193FD859193FF81912D
S11305407F01882309F4BAC1853239F493FD85917A
S113055093FF81917F01853229F4B60190E00E94D6
S11305607E04E7CF912C212C312CFFE1F315D8F038
S11305708B3279F038F4803279F08332A1F4232D70
S113058020611DC08D3261F0803369F4232D216018
S113059016C0832D8260382EE32DE4603E2E2AC0DF
S11305A0F32DF8601DC037FC2DC020ED280F2A3034
S11305B040F08E32B9F436FC81C1232D2064322EF2
S11305C019C036FE06C08AE0989E200D1124922E92
S11305D011C0EAE02E9E200D1124222EF32DF0628C
S11305E03F2E08C08C3621F4832D8068382E02C03B
S11305F0883641F4F70193FD859193FF81917F0142
S11306008111B3CF982F9F7D9554933028F40C5FBC
S11306101F4F9FE399830DC0833631F0833771F008
S1130620833509F059C021C0F801808189830E5FA8
S11306301F4F88248394912C530113C02801F2E0A6
S11306404F0E511CF801A080B18036FE03C0692D05
S113065070E002C06FEF7FEFC5010E9473044C018C
S11306608201F32DFF773F2E16C0280122E0420EAF
S1130670511CF801A080B18036FE03C0692D70E0E2
S113068002C06FEF7FEFC5010E9468044C01F32D97
S1130690F0683F2E820133FC1BC0822D90E0881647
S11306A09906B0F4B60180E290E00E947E042A9498
S11306B0F4CFF50137FC859137FE81915F01B601D6
S11306C090E00E947E0421102A9421E0821A91086D
S11306D08114910471F7E8C0843611F0893641F52C
S11306E0F80137FE07C060817181828193810C5FBC
S11306F01F4F08C060817181072E000C880B990B75
S11307000E5F1F4FF32DFF763F2E97FF09C0909584
S11307108095709561957F4F8F4F9F4FF0683F2E66
S11307202AE030E0A3010E94BA04882E861845C04E
S1130730853731F4232D2F7EB22E2AE030E025C0F8
S1130740932D997FB92E8F36C1F018F4883579F03E
S1130750B5C0803719F0883721F0B0C0E92FE061C7
S1130760BE2EB4FE0DC0FB2DF460BF2E09C034FEB6
S11307700AC0292F2660B22E06C028E030E005C04A
S113078020E130E002C020E132E0F801B7FE07C00A
S113079060817181828193810C5F1F4F06C06081EB
S11307A0718180E090E00E5F1F4FA3010E94BA04A4
S11307B0882E8618FB2DFF773F2E36FE0DC0232D85
S11307C02E7FA22E891458F434FE0BC032FC09C0CB
S11307D0832D8E7EA82E05C0B82CA32C03C0B82C64
S11307E001C0B92CA4FE0FC0FE01E80DF11D8081EB
S11307F0803321F49A2D997EA92E09C0A2FE06C049
S1130800B394B39404C08A2D867809F0B394A3FCFE
S113081011C0A0FE06C0B21488F4280C922C9B18B8
S11308200EC0B21460F4B60180E290E00E947E042F
S1130830B394F7CFB21418F42B1802C0982C212CBF
S1130840A4FE10C0B60180E390E00E947E04A2FEE4
S113085017C0A1FC03C088E790E002C088E590E0DF
S1130860B6010CC08A2D867859F0A1FE02C08BE235
S113087001C080E2A7FC8DE2B60190E00E947E04F4
S1130880891438F4B60180E390E00E947E049A94BF
S1130890F7CF8A94F301E80DF11D8081B60190E051
S11308A00E947E048110F5CF222009F442CEB601C5
S11308B080E290E00E947E042A94F6CFF6018681BD
S11308C0978102C08FEF9FEF2B96E2E10C943405E1
S11308D0FC010590615070400110D8F78095909507
S11308E08E0F9F1F0895FC0161507040019001100C
S11308F0D8F7809590958E0F9F1F08950F931F939F
S1130900CF93DF93FB01238121FD03C08FEF9FEF82
S11309102CC022FF16C0468157812481358142179D
S1130920530744F4A081B1819D012F5F3F4F318370
S113093020838C93268137812F5F3F4F3783268313
S113094014C08B01EC01FB010084F185E02D0995B5
S1130950892BE1F6D80116968D919C9117970196F3
S113096017969C938E931697CE01DF91CF911F918A
S11309700F910895FA01AA27283051F1203181F10D
S1130980E8946F936E7F6E5F7F4F8F4F9F4FAF4F93
S1130990B1E03ED0B4E03CD0670F781F891F9A1FA6
S11309A0A11D680F791F8A1F911DA11D6A0F711D5A
S11309B0811D911DA11D20D009F468943F912AE066
S11309C0269F11243019305D3193DEF6CF0108954E
S11309D0462F4770405D4193B3E00FD0C9F7F6CF7F
S11309E0462F4F70405D4A3318F0495D31FD405247
S11309F0419302D0A9F7EACFB4E0A69597958795DD
S1130A0077956795BA95C9F70097610571050895BB
S1130A109B01AC010A2E0694579547953795279567
S1130A20BA95C9F7620F731F841F951FA01D0895FF
S1130A302F923F924F925F926F927F928F929F92EA
S1130A40AF92BF92CF92DF92EF92FF920F931F93D8
S1130A50CF93DF93CDB7DEB7CA1BDB0B0FB6F89489
S1130A60DEBF0FBECDBF09942A88398848885F84C9
S1130A706E847D848C849B84AA84B984C884DF803A
S1130A80EE80FD800C811B81AA81B981CE0FD11D1E
S1130A900FB6F894DEBF0FBECDBFED010895F894F4
S1050AA0FFCF82
S1130AA24C63645F3100436F756E74203D200025F2
S1130AB264004C63645F32004C63645F33004C43F4
S1130AC2445F3120696E6974203A29004C43445FC3
S1130AD23220696E6974203A29004C43445F332002
S10B0AE2696E6974203A2900D1
S9030000FC
